{
  "contractName": "Votacao",
  "abi": [
    {
      "inputs": [],
      "stateMutability": "nonpayable",
      "type": "constructor"
    },
    {
      "inputs": [
        {
          "internalType": "uint256",
          "name": "",
          "type": "uint256"
        }
      ],
      "name": "artistas",
      "outputs": [
        {
          "internalType": "address",
          "name": "endereco",
          "type": "address"
        },
        {
          "internalType": "string",
          "name": "nomeCategoria",
          "type": "string"
        },
        {
          "internalType": "string",
          "name": "edicao",
          "type": "string"
        },
        {
          "internalType": "uint256",
          "name": "numeroDeVotos",
          "type": "uint256"
        }
      ],
      "stateMutability": "view",
      "type": "function",
      "constant": true
    },
    {
      "inputs": [],
      "name": "totalVotos",
      "outputs": [
        {
          "internalType": "uint256",
          "name": "",
          "type": "uint256"
        }
      ],
      "stateMutability": "view",
      "type": "function",
      "constant": true
    },
    {
      "inputs": [
        {
          "internalType": "address",
          "name": "_enderecoArtista",
          "type": "address"
        },
        {
          "internalType": "string",
          "name": "_nomeEdicao",
          "type": "string"
        },
        {
          "internalType": "string",
          "name": "_nomeCategoria",
          "type": "string"
        }
      ],
      "name": "adicionarArtista",
      "outputs": [],
      "stateMutability": "nonpayable",
      "type": "function"
    },
    {
      "inputs": [
        {
          "internalType": "address",
          "name": "_enderecoArtista",
          "type": "address"
        },
        {
          "internalType": "string",
          "name": "biVotante",
          "type": "string"
        },
        {
          "internalType": "string",
          "name": "_edicao",
          "type": "string"
        },
        {
          "internalType": "string",
          "name": "_categoria",
          "type": "string"
        }
      ],
      "name": "votar",
      "outputs": [],
      "stateMutability": "nonpayable",
      "type": "function"
    },
    {
      "inputs": [
        {
          "internalType": "address",
          "name": "_enderecoArtista",
          "type": "address"
        },
        {
          "internalType": "string",
          "name": "_edicao",
          "type": "string"
        },
        {
          "internalType": "string",
          "name": "_categoria",
          "type": "string"
        }
      ],
      "name": "numeroDeVotosArtistaCategoriaEdicao",
      "outputs": [
        {
          "internalType": "uint256",
          "name": "",
          "type": "uint256"
        }
      ],
      "stateMutability": "view",
      "type": "function",
      "constant": true
    },
    {
      "inputs": [
        {
          "internalType": "string",
          "name": "_edicao",
          "type": "string"
        },
        {
          "internalType": "string",
          "name": "_categoria",
          "type": "string"
        }
      ],
      "name": "votosPorCategoria",
      "outputs": [
        {
          "internalType": "uint256",
          "name": "",
          "type": "uint256"
        }
      ],
      "stateMutability": "view",
      "type": "function",
      "constant": true
    }
  ],
  "bytecode": "0x608060405234801561001057600080fd5b5060008081905550612314806100276000396000f3fe608060405234801561001057600080fd5b50600436106100625760003560e01c80630f798883146100675780632b7961a31461027057806370e36064146103e257806391d8961f14610400578063a726d4bd14610566578063cb7eecf31461069d575b600080fd5b61026e6004803603608081101561007d57600080fd5b81019080803573ffffffffffffffffffffffffffffffffffffffff169060200190929190803590602001906401000000008111156100ba57600080fd5b8201836020820111156100cc57600080fd5b803590602001918460018302840111640100000000831117156100ee57600080fd5b91908080601f016020809104026020016040519081016040528093929190818152602001838380828437600081840152601f19601f8201169050808301925050505050505091929192908035906020019064010000000081111561015157600080fd5b82018360208201111561016357600080fd5b8035906020019184600183028401116401000000008311171561018557600080fd5b91908080601f016020809104026020016040519081016040528093929190818152602001838380828437600081840152601f19601f820116905080830192505050505050509192919290803590602001906401000000008111156101e857600080fd5b8201836020820111156101fa57600080fd5b8035906020019184600183028401116401000000008311171561021c57600080fd5b91908080601f016020809104026020016040519081016040528093929190818152602001838380828437600081840152601f19601f820116905080830192505050505050509192919290505050610823565b005b6103e06004803603606081101561028657600080fd5b81019080803573ffffffffffffffffffffffffffffffffffffffff169060200190929190803590602001906401000000008111156102c357600080fd5b8201836020820111156102d557600080fd5b803590602001918460018302840111640100000000831117156102f757600080fd5b91908080601f016020809104026020016040519081016040528093929190818152602001838380828437600081840152601f19601f8201169050808301925050505050505091929192908035906020019064010000000081111561035a57600080fd5b82018360208201111561036c57600080fd5b8035906020019184600183028401116401000000008311171561038e57600080fd5b91908080601f016020809104026020016040519081016040528093929190818152602001838380828437600081840152601f19601f82011690508083019250505050505050919291929050505061156c565b005b6103ea611d48565b6040518082815260200191505060405180910390f35b6105506004803603604081101561041657600080fd5b810190808035906020019064010000000081111561043357600080fd5b82018360208201111561044557600080fd5b8035906020019184600183028401116401000000008311171561046757600080fd5b91908080601f016020809104026020016040519081016040528093929190818152602001838380828437600081840152601f19601f820116905080830192505050505050509192919290803590602001906401000000008111156104ca57600080fd5b8201836020820111156104dc57600080fd5b803590602001918460018302840111640100000000831117156104fe57600080fd5b91908080601f016020809104026020016040519081016040528093929190818152602001838380828437600081840152601f19601f820116905080830192505050505050509192919290505050611d4e565b6040518082815260200191505060405180910390f35b6105926004803603602081101561057c57600080fd5b8101908080359060200190929190505050611e2c565b604051808573ffffffffffffffffffffffffffffffffffffffff1681526020018060200180602001848152602001838103835286818151815260200191508051906020019080838360005b838110156105f85780820151818401526020810190506105dd565b50505050905090810190601f1680156106255780820380516001836020036101000a031916815260200191505b50838103825285818151815260200191508051906020019080838360005b8381101561065e578082015181840152602081019050610643565b50505050905090810190601f16801561068b5780820380516001836020036101000a031916815260200191505b50965050505050505060405180910390f35b61080d600480360360608110156106b357600080fd5b81019080803573ffffffffffffffffffffffffffffffffffffffff169060200190929190803590602001906401000000008111156106f057600080fd5b82018360208201111561070257600080fd5b8035906020019184600183028401116401000000008311171561072457600080fd5b91908080601f016020809104026020016040519081016040528093929190818152602001838380828437600081840152601f19601f8201169050808301925050505050505091929192908035906020019064010000000081111561078757600080fd5b82018360208201111561079957600080fd5b803590602001918460018302840111640100000000831117156107bb57600080fd5b91908080601f016020809104026020016040519081016040528093929190818152602001838380828437600081840152601f19601f820116905080830192505050505050509192919290505050611fac565b6040518082815260200191505060405180910390f35b61082b61217f565b60001515600860008773ffffffffffffffffffffffffffffffffffffffff1673ffffffffffffffffffffffffffffffffffffffff16815260200190815260200160002060003373ffffffffffffffffffffffffffffffffffffffff1673ffffffffffffffffffffffffffffffffffffffff168152602001908152602001600020856040518082805190602001908083835b602083106108df57805182526020820191506020810190506020830392506108bc565b6001836020036101000a0380198251168184511680821785525050505050509050019150509081526020016040518091039020846040518082805190602001908083835b602083106109465780518252602082019150602081019050602083039250610923565b6001836020036101000a0380198251168184511680821785525050505050509050019150509081526020016040518091039020836040518082805190602001908083835b602083106109ad578051825260208201915060208101905060208303925061098a565b6001836020036101000a038019825116818451168082178552505050505050905001915050908152602001604051809103902060009054906101000a900460ff16151514610a46576040517f08c379a00000000000000000000000000000000000000000000000000000000081526004018080602001828103825260238152602001806122bc6023913960400191505060405180910390fd5b60001515600960008773ffffffffffffffffffffffffffffffffffffffff1673ffffffffffffffffffffffffffffffffffffffff16815260200190815260200160002060003373ffffffffffffffffffffffffffffffffffffffff1673ffffffffffffffffffffffffffffffffffffffff168152602001908152602001600020846040518082805190602001908083835b60208310610afa5780518252602082019150602081019050602083039250610ad7565b6001836020036101000a0380198251168184511680821785525050505050509050019150509081526020016040518091039020836040518082805190602001908083835b60208310610b615780518252602082019150602081019050602083039250610b3e565b6001836020036101000a038019825116818451168082178552505050505050905001915050908152602001604051809103902060009054906101000a900460ff16151514610bfa576040517f08c379a00000000000000000000000000000000000000000000000000000000081526004018080602001828103825260238152602001806122bc6023913960400191505060405180910390fd5b60001515600460003373ffffffffffffffffffffffffffffffffffffffff1673ffffffffffffffffffffffffffffffffffffffff168152602001908152602001600020836040518082805190602001908083835b60208310610c715780518252602082019150602081019050602083039250610c4e565b6001836020036101000a038019825116818451168082178552505050505050905001915050908152602001604051809103902060009054906101000a900460ff16151514610d0a576040517f08c379a00000000000000000000000000000000000000000000000000000000081526004018080602001828103825260238152602001806122bc6023913960400191505060405180910390fd5b60005b600054811015610f79578573ffffffffffffffffffffffffffffffffffffffff166002600083815260200190815260200160002060000160009054906101000a900473ffffffffffffffffffffffffffffffffffffffff1673ffffffffffffffffffffffffffffffffffffffff161415610f6c576002600082815260200190815260200160002060030160008154809291906001019190505550600260008281526020019081526020016000206040518060800160405290816000820160009054906101000a900473ffffffffffffffffffffffffffffffffffffffff1673ffffffffffffffffffffffffffffffffffffffff1673ffffffffffffffffffffffffffffffffffffffff168152602001600182018054600181600116156101000203166002900480601f016020809104026020016040519081016040528092919081815260200182805460018160011615610100020316600290048015610eb45780601f10610e8957610100808354040283529160200191610eb4565b820191906000526020600020905b815481529060010190602001808311610e9757829003601f168201915b50505050508152602001600282018054600181600116156101000203166002900480601f016020809104026020016040519081016040528092919081815260200182805460018160011615610100020316600290048015610f565780601f10610f2b57610100808354040283529160200191610f56565b820191906000526020600020905b815481529060010190602001808311610f3957829003601f168201915b5050505050815260200160038201548152505091505b8080600101915050610d0d565b5080600560003373ffffffffffffffffffffffffffffffffffffffff1673ffffffffffffffffffffffffffffffffffffffff16815260200190815260200160002060008201518160000160006101000a81548173ffffffffffffffffffffffffffffffffffffffff021916908373ffffffffffffffffffffffffffffffffffffffff160217905550602082015181600101908051906020019061101d9291906121bd565b50604082015181600201908051906020019061103a9291906121bd565b50606082015181600301559050506003836040518082805190602001908083835b6020831061107e578051825260208201915060208101905060208303925061105b565b6001836020036101000a0380198251168184511680821785525050505050509050019150509081526020016040518091039020826040518082805190602001908083835b602083106110e557805182526020820191506020810190506020830392506110c2565b6001836020036101000a0380198251168184511680821785525050505050509050019150509081526020016040518091039020600001600081548092919060010191905055506003836040518082805190602001908083835b60208310611161578051825260208201915060208101905060208303925061113e565b6001836020036101000a0380198251168184511680821785525050505050509050019150509081526020016040518091039020826040518082805190602001908083835b602083106111c857805182526020820191506020810190506020830392506111a5565b6001836020036101000a0380198251168184511680821785525050505050509050019150509081526020016040518091039020600101836040518082805190602001908083835b60208310611232578051825260208201915060208101905060208303925061120f565b6001836020036101000a0380198251168184511680821785525050505050509050019150509081526020016040518091039020826040518082805190602001908083835b602083106112995780518252602082019150602081019050602083039250611276565b6001836020036101000a0380198251168184511680821785525050505050509050019150509081526020016040518091039020600081548092919060010191905055506001600860008773ffffffffffffffffffffffffffffffffffffffff1673ffffffffffffffffffffffffffffffffffffffff16815260200190815260200160002060003373ffffffffffffffffffffffffffffffffffffffff1673ffffffffffffffffffffffffffffffffffffffff168152602001908152602001600020856040518082805190602001908083835b6020831061138e578051825260208201915060208101905060208303925061136b565b6001836020036101000a0380198251168184511680821785525050505050509050019150509081526020016040518091039020846040518082805190602001908083835b602083106113f557805182526020820191506020810190506020830392506113d2565b6001836020036101000a0380198251168184511680821785525050505050509050019150509081526020016040518091039020836040518082805190602001908083835b6020831061145c5780518252602082019150602081019050602083039250611439565b6001836020036101000a038019825116818451168082178552505050505050905001915050908152602001604051809103902060006101000a81548160ff0219169083151502179055506001600460003373ffffffffffffffffffffffffffffffffffffffff1673ffffffffffffffffffffffffffffffffffffffff168152602001908152602001600020836040518082805190602001908083835b6020831061151b57805182526020820191506020810190506020830392506114f8565b6001836020036101000a038019825116818451168082178552505050505050905001915050908152602001604051809103902060006101000a81548160ff0219169083151502179055505050505050565b60001515600760008573ffffffffffffffffffffffffffffffffffffffff1673ffffffffffffffffffffffffffffffffffffffff168152602001908152602001600020836040518082805190602001908083835b602083106115e357805182526020820191506020810190506020830392506115c0565b6001836020036101000a0380198251168184511680821785525050505050509050019150509081526020016040518091039020826040518082805190602001908083835b6020831061164a5780518252602082019150602081019050602083039250611627565b6001836020036101000a038019825116818451168082178552505050505050905001915050908152602001604051809103902060009054906101000a900460ff161515146116e3576040517f08c379a000000000000000000000000000000000000000000000000000000000815260040180806020018281038252603881526020018061225b6038913960400191505060405180910390fd5b60001515600660008573ffffffffffffffffffffffffffffffffffffffff1673ffffffffffffffffffffffffffffffffffffffff168152602001908152602001600020836040518082805190602001908083835b6020831061175a5780518252602082019150602081019050602083039250611737565b6001836020036101000a038019825116818451168082178552505050505050905001915050908152602001604051809103902060009054906101000a900460ff161515146117f3576040517f08c379a00000000000000000000000000000000000000000000000000000000081526004018080602001828103825260298152602001806122936029913960400191505060405180910390fd5b60405180608001604052808473ffffffffffffffffffffffffffffffffffffffff1681526020018281526020018381526020016000815250600260008054815260200190815260200160002060008201518160000160006101000a81548173ffffffffffffffffffffffffffffffffffffffff021916908373ffffffffffffffffffffffffffffffffffffffff16021790555060208201518160010190805190602001906118a29291906121bd565b5060408201518160020190805190602001906118bf9291906121bd565b506060820151816003015590505060008081548092919060010191905055506001600760008573ffffffffffffffffffffffffffffffffffffffff1673ffffffffffffffffffffffffffffffffffffffff168152602001908152602001600020836040518082805190602001908083835b602083106119535780518252602082019150602081019050602083039250611930565b6001836020036101000a0380198251168184511680821785525050505050509050019150509081526020016040518091039020826040518082805190602001908083835b602083106119ba5780518252602082019150602081019050602083039250611997565b6001836020036101000a038019825116818451168082178552505050505050905001915050908152602001604051809103902060006101000a81548160ff0219169083151502179055506001600660008573ffffffffffffffffffffffffffffffffffffffff1673ffffffffffffffffffffffffffffffffffffffff168152602001908152602001600020836040518082805190602001908083835b60208310611a795780518252602082019150602081019050602083039250611a56565b6001836020036101000a038019825116818451168082178552505050505050905001915050908152602001604051809103902060006101000a81548160ff02191690831515021790555060006003836040518082805190602001908083835b60208310611afb5780518252602082019150602081019050602083039250611ad8565b6001836020036101000a0380198251168184511680821785525050505050509050019150509081526020016040518091039020826040518082805190602001908083835b60208310611b625780518252602082019150602081019050602083039250611b3f565b6001836020036101000a0380198251168184511680821785525050505050509050019150509081526020016040518091039020600101836040518082805190602001908083835b60208310611bcc5780518252602082019150602081019050602083039250611ba9565b6001836020036101000a0380198251168184511680821785525050505050509050019150509081526020016040518091039020826040518082805190602001908083835b60208310611c335780518252602082019150602081019050602083039250611c10565b6001836020036101000a03801982511681845116808217855250505050505090500191505090815260200160405180910390208190555060006003836040518082805190602001908083835b60208310611ca25780518252602082019150602081019050602083039250611c7f565b6001836020036101000a0380198251168184511680821785525050505050509050019150509081526020016040518091039020826040518082805190602001908083835b60208310611d095780518252602082019150602081019050602083039250611ce6565b6001836020036101000a038019825116818451168082178552505050505050905001915050908152602001604051809103902060000181905550505050565b60015481565b60006003836040518082805190602001908083835b60208310611d865780518252602082019150602081019050602083039250611d63565b6001836020036101000a0380198251168184511680821785525050505050509050019150509081526020016040518091039020826040518082805190602001908083835b60208310611ded5780518252602082019150602081019050602083039250611dca565b6001836020036101000a038019825116818451168082178552505050505050905001915050908152602001604051809103902060000154905092915050565b60026020528060005260406000206000915090508060000160009054906101000a900473ffffffffffffffffffffffffffffffffffffffff1690806001018054600181600116156101000203166002900480601f016020809104026020016040519081016040528092919081815260200182805460018160011615610100020316600290048015611efe5780601f10611ed357610100808354040283529160200191611efe565b820191906000526020600020905b815481529060010190602001808311611ee157829003601f168201915b505050505090806002018054600181600116156101000203166002900480601f016020809104026020016040519081016040528092919081815260200182805460018160011615610100020316600290048015611f9c5780601f10611f7157610100808354040283529160200191611f9c565b820191906000526020600020905b815481529060010190602001808311611f7f57829003601f168201915b5050505050908060030154905084565b600080600090505b600054811015612172578473ffffffffffffffffffffffffffffffffffffffff166002600083815260200190815260200160002060000160009054906101000a900473ffffffffffffffffffffffffffffffffffffffff1673ffffffffffffffffffffffffffffffffffffffff161480156120b2575082805190602001206002600083815260200190815260200160002060010160405180828054600181600116156101000203166002900480156120a35780601f106120815761010080835404028352918201916120a3565b820191906000526020600020905b81548152906001019060200180831161208f575b50509150506040518091039020145b8015612141575083805190602001206002600083815260200190815260200160002060020160405180828054600181600116156101000203166002900480156121325780601f10612110576101008083540402835291820191612132565b820191906000526020600020905b81548152906001019060200180831161211e575b50509150506040518091039020145b15612165576002600082815260200190815260200160002060030154915050612178565b8080600101915050611fb4565b50600090505b9392505050565b6040518060800160405280600073ffffffffffffffffffffffffffffffffffffffff1681526020016060815260200160608152602001600081525090565b828054600181600116156101000203166002900490600052602060002090601f016020900481019282601f106121fe57805160ff191683800117855561222c565b8280016001018555821561222c579182015b8281111561222b578251825591602001919060010190612210565b5b509050612239919061223d565b5090565b5b8082111561225657600081600090555060010161223e565b509056fe41727469737461206a612065737461206e657374612065646963616f20636f6e636f7272656e646f206e657374612063617465676f72696141727469737461206a61206573746168206120636f6e636f72726572206e657374612065646963616f4a61207375626d6574657520756d20766f746f206e657374612063617465676f726961a2646970667358221220dd76308c038d5b2886665c7519a699a7ba59092278a6510f6f683dd273c9b37964736f6c63430007000033",
  "immutableReferences": {},
  "source": "// SPDX-License-Identifier: GPL-3.0\npragma solidity >= 0.7.0 < 0.9.0;\n\ncontract Votacao {\n  uint256 totalArtistas;\n  uint256 public totalVotos;\n  \n  struct Edicao {\n    uint256 numeroDeVotos;\n    mapping(string => mapping(string => uint256)) votosPorEdicaoECategoria;\n  }\n  \n  struct Artista {\n    address endereco;\n    string nomeCategoria;\n    string edicao;\n    uint256 numeroDeVotos;\n  }\n\n  mapping(uint256 => Artista) public artistas;\n  mapping(string => mapping(string => Edicao)) edicoes;\n  mapping(address => mapping(string => bool)) categoriaUsada;\n  mapping(address => Artista) votos;\n  mapping(address => mapping(string => bool)) estaEmEdicao;\n  mapping(address => mapping(string => mapping(string => bool))) jaArtistaAdicionadoEdicaoCategoria;\n  mapping(address => mapping(address => mapping(string => mapping(string => mapping(string => bool))))) biUsadoVoto;\n  mapping(address => mapping(address => mapping(string => mapping(string => bool)))) enderecoUsado;\n  \n  constructor () {\n    totalArtistas = 0;\n  }\n\n  function adicionarArtista(address _enderecoArtista, string memory _nomeEdicao, string memory _nomeCategoria) public {\n    require(jaArtistaAdicionadoEdicaoCategoria[_enderecoArtista][_nomeEdicao][_nomeCategoria] == false, \"Artista ja esta nesta edicao concorrendo nesta categoria\");\n    require(estaEmEdicao[_enderecoArtista][_nomeEdicao] == false, \"Artista ja estah a concorrer nesta edicao\");\n    artistas[totalArtistas] = Artista(_enderecoArtista, _nomeCategoria, _nomeEdicao, 0);\n    totalArtistas++;\n    jaArtistaAdicionadoEdicaoCategoria[_enderecoArtista][_nomeEdicao][_nomeCategoria] = true;\n    estaEmEdicao[_enderecoArtista][_nomeEdicao] = true;\n    edicoes[_nomeEdicao][_nomeCategoria].votosPorEdicaoECategoria[_nomeEdicao][_nomeCategoria] = 0;\n    edicoes[_nomeEdicao][_nomeCategoria].numeroDeVotos = 0;\n  }\n\n  function votar(address _enderecoArtista, string memory biVotante, string memory _edicao, string memory _categoria) public {\n    Artista memory artista;\n    require(biUsadoVoto[_enderecoArtista][msg.sender][biVotante][_edicao][_categoria] == false, \"Ja submeteu um voto nesta categoria\");\n    require(enderecoUsado[_enderecoArtista][msg.sender][_edicao][_categoria] == false, \"Ja submeteu um voto nesta categoria\");\n    require(categoriaUsada[msg.sender][_categoria] == false, \"Ja submeteu um voto nesta categoria\");\n    for (uint256 i = 0; i < totalArtistas; i++) {\n      if (artistas[i].endereco == _enderecoArtista) {\n        artistas[i].numeroDeVotos++;\n        artista = artistas[i];\n      }\n    }\n    votos[msg.sender] = artista;\n    edicoes[_edicao][_categoria].numeroDeVotos++;\n    edicoes[_edicao][_categoria].votosPorEdicaoECategoria[_edicao][_categoria]++;\n    biUsadoVoto[_enderecoArtista][msg.sender][biVotante][_edicao][_categoria] = true;\n    categoriaUsada[msg.sender][_categoria] = true;\n  }\n\n  function numeroDeVotosArtistaCategoriaEdicao(address _enderecoArtista, string memory _edicao, string memory _categoria) public view returns (uint256) {\n    for (uint256 i = 0; i < totalArtistas; i++) {\n      if (artistas[i].endereco == _enderecoArtista && keccak256(bytes(artistas[i].nomeCategoria)) == keccak256(bytes(_categoria)) && keccak256(bytes(artistas[i].edicao)) == keccak256(bytes(_edicao))) {\n        return artistas[i].numeroDeVotos;\n      }\n    }\n    return 0;\n  }\n\n  function votosPorCategoria(string memory _edicao, string memory _categoria) public view returns (uint256) {\n    return edicoes[_edicao][_categoria].numeroDeVotos;\n  }\n}\n",
  "sourcePath": "c:\\2023\\mimbu\\src\\contracts\\Votacao.sol",
  "compiler": {
    "name": "solc",
    "version": "0.7.0+commit.9e61f92b.Emscripten.clang"
  },
  "schemaVersion": "3.4.13",
  "updatedAt": "2023-04-25T20:55:45.229Z",
  "networkType": "ethereum",
  "devdoc": {
    "kind": "dev",
    "methods": {},
    "version": 1
  },
  "userdoc": {
    "kind": "user",
    "methods": {},
    "version": 1
  }
}