{
  "contractName": "Votacao",
  "abi": [
    {
      "inputs": [],
      "stateMutability": "nonpayable",
      "type": "constructor"
    },
    {
      "anonymous": false,
      "inputs": [
        {
          "indexed": false,
          "internalType": "string",
          "name": "nomeArtista",
          "type": "string"
        }
      ],
      "name": "aoSalvarArtista",
      "type": "event"
    },
    {
      "anonymous": false,
      "inputs": [
        {
          "indexed": false,
          "internalType": "address",
          "name": "_enderecoVotante",
          "type": "address"
        },
        {
          "indexed": false,
          "internalType": "address",
          "name": "_artista",
          "type": "address"
        }
      ],
      "name": "aoVotar",
      "type": "event"
    },
    {
      "inputs": [
        {
          "internalType": "uint256",
          "name": "",
          "type": "uint256"
        }
      ],
      "name": "artistas",
      "outputs": [
        {
          "internalType": "address",
          "name": "endereco",
          "type": "address"
        },
        {
          "internalType": "string",
          "name": "nomeCategoria",
          "type": "string"
        },
        {
          "internalType": "string",
          "name": "nomeArtista",
          "type": "string"
        },
        {
          "internalType": "uint256",
          "name": "numeroDeVotos",
          "type": "uint256"
        }
      ],
      "stateMutability": "view",
      "type": "function",
      "constant": true
    },
    {
      "inputs": [],
      "name": "totalVotos",
      "outputs": [
        {
          "internalType": "uint256",
          "name": "",
          "type": "uint256"
        }
      ],
      "stateMutability": "view",
      "type": "function",
      "constant": true
    },
    {
      "inputs": [
        {
          "internalType": "address",
          "name": "_enderecoArtista",
          "type": "address"
        },
        {
          "internalType": "string",
          "name": "_nomeArtista",
          "type": "string"
        },
        {
          "internalType": "string",
          "name": "_nomeCategoria",
          "type": "string"
        }
      ],
      "name": "adicionarArtista",
      "outputs": [],
      "stateMutability": "nonpayable",
      "type": "function"
    },
    {
      "inputs": [
        {
          "internalType": "address",
          "name": "_enderecoArtista",
          "type": "address"
        },
        {
          "internalType": "string",
          "name": "biVotante",
          "type": "string"
        },
        {
          "internalType": "string",
          "name": "_categoria",
          "type": "string"
        }
      ],
      "name": "votar",
      "outputs": [],
      "stateMutability": "nonpayable",
      "type": "function"
    },
    {
      "inputs": [
        {
          "internalType": "address",
          "name": "_enderecoArtista",
          "type": "address"
        }
      ],
      "name": "votosDeUmArtista",
      "outputs": [
        {
          "internalType": "uint256",
          "name": "",
          "type": "uint256"
        }
      ],
      "stateMutability": "view",
      "type": "function",
      "constant": true
    }
  ],
  "bytecode": "0x608060405234801561001057600080fd5b50600080819055506119c0806100276000396000f3fe608060405234801561001057600080fd5b50600436106100575760003560e01c80632b7961a31461005c57806370e36064146101ce57806390c37155146101ec578063a726d4bd14610244578063b36fe0511461037b575b600080fd5b6101cc6004803603606081101561007257600080fd5b81019080803573ffffffffffffffffffffffffffffffffffffffff169060200190929190803590602001906401000000008111156100af57600080fd5b8201836020820111156100c157600080fd5b803590602001918460018302840111640100000000831117156100e357600080fd5b91908080601f016020809104026020016040519081016040528093929190818152602001838380828437600081840152601f19601f8201169050808301925050505050505091929192908035906020019064010000000081111561014657600080fd5b82018360208201111561015857600080fd5b8035906020019184600183028401116401000000008311171561017a57600080fd5b91908080601f016020809104026020016040519081016040528093929190818152602001838380828437600081840152601f19601f8201169050808301925050505050505091929192905050506104ed565b005b6101d6610bc3565b6040518082815260200191505060405180910390f35b61022e6004803603602081101561020257600080fd5b81019080803573ffffffffffffffffffffffffffffffffffffffff169060200190929190505050610bc9565b6040518082815260200191505060405180910390f35b6102706004803603602081101561025a57600080fd5b8101908080359060200190929190505050610e2a565b604051808573ffffffffffffffffffffffffffffffffffffffff1681526020018060200180602001848152602001838103835286818151815260200191508051906020019080838360005b838110156102d65780820151818401526020810190506102bb565b50505050905090810190601f1680156103035780820380516001836020036101000a031916815260200191505b50838103825285818151815260200191508051906020019080838360005b8381101561033c578082015181840152602081019050610321565b50505050905090810190601f1680156103695780820380516001836020036101000a031916815260200191505b50965050505050505060405180910390f35b6104eb6004803603606081101561039157600080fd5b81019080803573ffffffffffffffffffffffffffffffffffffffff169060200190929190803590602001906401000000008111156103ce57600080fd5b8201836020820111156103e057600080fd5b8035906020019184600183028401116401000000008311171561040257600080fd5b91908080601f016020809104026020016040519081016040528093929190818152602001838380828437600081840152601f19601f8201169050808301925050505050505091929192908035906020019064010000000081111561046557600080fd5b82018360208201111561047757600080fd5b8035906020019184600183028401116401000000008311171561049957600080fd5b91908080601f016020809104026020016040519081016040528093929190818152602001838380828437600081840152601f19601f820116905080830192505050505050509192919290505050610faa565b005b60001515600860008573ffffffffffffffffffffffffffffffffffffffff1673ffffffffffffffffffffffffffffffffffffffff16815260200190815260200160002060009054906101000a900460ff161515146105b3576040517f08c379a00000000000000000000000000000000000000000000000000000000081526004018080602001828103825260118152602001807f41727469737461206a612065786973746500000000000000000000000000000081525060200191505060405180910390fd5b60001515600760008573ffffffffffffffffffffffffffffffffffffffff1673ffffffffffffffffffffffffffffffffffffffff168152602001908152602001600020836040518082805190602001908083835b6020831061062a5780518252602082019150602081019050602083039250610607565b6001836020036101000a038019825116818451168082178552505050505050905001915050908152602001604051809103902060009054906101000a900460ff161515146106e0576040517f08c379a00000000000000000000000000000000000000000000000000000000081526004018080602001828103825260118152602001807f41727469737461206a612065786973746500000000000000000000000000000081525060200191505060405180910390fd5b600015156009836040518082805190602001908083835b6020831061071a57805182526020820191506020810190506020830392506106f7565b6001836020036101000a0380198251168184511680821785525050505050509050019150509081526020016040518091039020826040518082805190602001908083835b60208310610781578051825260208201915060208101905060208303925061075e565b6001836020036101000a038019825116818451168082178552505050505050905001915050908152602001604051809103902060009054906101000a900460ff16151514610837576040517f08c379a00000000000000000000000000000000000000000000000000000000081526004018080602001828103825260118152602001807f41727469737461206a612065786973746500000000000000000000000000000081525060200191505060405180910390fd5b60405180608001604052808473ffffffffffffffffffffffffffffffffffffffff1681526020018281526020018381526020016000815250600260008054815260200190815260200160002060008201518160000160006101000a81548173ffffffffffffffffffffffffffffffffffffffff021916908373ffffffffffffffffffffffffffffffffffffffff16021790555060208201518160010190805190602001906108e692919061188c565b50604082015181600201908051906020019061090392919061188c565b506060820151816003015590505060008081548092919060010191905055506001600860008573ffffffffffffffffffffffffffffffffffffffff1673ffffffffffffffffffffffffffffffffffffffff16815260200190815260200160002060006101000a81548160ff0219169083151502179055506001600760008573ffffffffffffffffffffffffffffffffffffffff1673ffffffffffffffffffffffffffffffffffffffff168152602001908152602001600020836040518082805190602001908083835b602083106109ef57805182526020820191506020810190506020830392506109cc565b6001836020036101000a038019825116818451168082178552505050505050905001915050908152602001604051809103902060006101000a81548160ff02191690831515021790555060016009836040518082805190602001908083835b60208310610a715780518252602082019150602081019050602083039250610a4e565b6001836020036101000a0380198251168184511680821785525050505050509050019150509081526020016040518091039020826040518082805190602001908083835b60208310610ad85780518252602082019150602081019050602083039250610ab5565b6001836020036101000a038019825116818451168082178552505050505050905001915050908152602001604051809103902060006101000a81548160ff0219169083151502179055507f38168499331de3e3c17ad288e17d1e6966aa6bd03f3c693a9bf1e34fcdd3d050826040518080602001828103825283818151815260200191508051906020019080838360005b83811015610b84578082015181840152602081019050610b69565b50505050905090810190601f168015610bb15780820380516001836020036101000a031916815260200191505b509250505060405180910390a1505050565b60015481565b6000610bd361190c565b60005b600054811015610e1c578373ffffffffffffffffffffffffffffffffffffffff166002600083815260200190815260200160002060000160009054906101000a900473ffffffffffffffffffffffffffffffffffffffff1673ffffffffffffffffffffffffffffffffffffffff161415610e0f57600260008281526020019081526020016000206040518060800160405290816000820160009054906101000a900473ffffffffffffffffffffffffffffffffffffffff1673ffffffffffffffffffffffffffffffffffffffff1673ffffffffffffffffffffffffffffffffffffffff168152602001600182018054600181600116156101000203166002900480601f016020809104026020016040519081016040528092919081815260200182805460018160011615610100020316600290048015610d575780601f10610d2c57610100808354040283529160200191610d57565b820191906000526020600020905b815481529060010190602001808311610d3a57829003601f168201915b50505050508152602001600282018054600181600116156101000203166002900480601f016020809104026020016040519081016040528092919081815260200182805460018160011615610100020316600290048015610df95780601f10610dce57610100808354040283529160200191610df9565b820191906000526020600020905b815481529060010190602001808311610ddc57829003601f168201915b5050505050815260200160038201548152505091505b8080600101915050610bd6565b508060600151915050919050565b60026020528060005260406000206000915090508060000160009054906101000a900473ffffffffffffffffffffffffffffffffffffffff1690806001018054600181600116156101000203166002900480601f016020809104026020016040519081016040528092919081815260200182805460018160011615610100020316600290048015610efc5780601f10610ed157610100808354040283529160200191610efc565b820191906000526020600020905b815481529060010190602001808311610edf57829003601f168201915b505050505090806002018054600181600116156101000203166002900480601f016020809104026020016040519081016040528092919081815260200182805460018160011615610100020316600290048015610f9a5780601f10610f6f57610100808354040283529160200191610f9a565b820191906000526020600020905b815481529060010190602001808311610f7d57829003601f168201915b5050505050908060030154905084565b610fb261190c565b60001515600460003373ffffffffffffffffffffffffffffffffffffffff1673ffffffffffffffffffffffffffffffffffffffff16815260200190815260200160002060008673ffffffffffffffffffffffffffffffffffffffff1673ffffffffffffffffffffffffffffffffffffffff16815260200190815260200160002060009054906101000a900460ff16151514611098576040517f08c379a00000000000000000000000000000000000000000000000000000000081526004018080602001828103825260238152602001806119686023913960400191505060405180910390fd5b600015156005846040518082805190602001908083835b602083106110d257805182526020820191506020810190506020830392506110af565b6001836020036101000a038019825116818451168082178552505050505050905001915050908152602001604051809103902060008673ffffffffffffffffffffffffffffffffffffffff1673ffffffffffffffffffffffffffffffffffffffff16815260200190815260200160002060009054906101000a900460ff161515146111a8576040517f08c379a00000000000000000000000000000000000000000000000000000000081526004018080602001828103825260238152602001806119686023913960400191505060405180910390fd5b60001515600660003373ffffffffffffffffffffffffffffffffffffffff1673ffffffffffffffffffffffffffffffffffffffff168152602001908152602001600020836040518082805190602001908083835b6020831061121f57805182526020820191506020810190506020830392506111fc565b6001836020036101000a038019825116818451168082178552505050505050905001915050908152602001604051809103902060009054906101000a900460ff161515146112b8576040517f08c379a00000000000000000000000000000000000000000000000000000000081526004018080602001828103825260238152602001806119686023913960400191505060405180910390fd5b60005b600054811015611527578473ffffffffffffffffffffffffffffffffffffffff166002600083815260200190815260200160002060000160009054906101000a900473ffffffffffffffffffffffffffffffffffffffff1673ffffffffffffffffffffffffffffffffffffffff16141561151a576002600082815260200190815260200160002060030160008154809291906001019190505550600260008281526020019081526020016000206040518060800160405290816000820160009054906101000a900473ffffffffffffffffffffffffffffffffffffffff1673ffffffffffffffffffffffffffffffffffffffff1673ffffffffffffffffffffffffffffffffffffffff168152602001600182018054600181600116156101000203166002900480601f0160208091040260200160405190810160405280929190818152602001828054600181600116156101000203166002900480156114625780601f1061143757610100808354040283529160200191611462565b820191906000526020600020905b81548152906001019060200180831161144557829003601f168201915b50505050508152602001600282018054600181600116156101000203166002900480601f0160208091040260200160405190810160405280929190818152602001828054600181600116156101000203166002900480156115045780601f106114d957610100808354040283529160200191611504565b820191906000526020600020905b8154815290600101906020018083116114e757829003601f168201915b5050505050815260200160038201548152505091505b80806001019150506112bb565b5080600360003373ffffffffffffffffffffffffffffffffffffffff1673ffffffffffffffffffffffffffffffffffffffff16815260200190815260200160002060008201518160000160006101000a81548173ffffffffffffffffffffffffffffffffffffffff021916908373ffffffffffffffffffffffffffffffffffffffff16021790555060208201518160010190805190602001906115cb92919061188c565b5060408201518160020190805190602001906115e892919061188c565b50606082015181600301559050506001600081548092919060010191905055506001600460003373ffffffffffffffffffffffffffffffffffffffff1673ffffffffffffffffffffffffffffffffffffffff16815260200190815260200160002060008673ffffffffffffffffffffffffffffffffffffffff1673ffffffffffffffffffffffffffffffffffffffff16815260200190815260200160002060006101000a81548160ff02191690831515021790555060016005846040518082805190602001908083835b602083106116d557805182526020820191506020810190506020830392506116b2565b6001836020036101000a038019825116818451168082178552505050505050905001915050908152602001604051809103902060008673ffffffffffffffffffffffffffffffffffffffff1673ffffffffffffffffffffffffffffffffffffffff16815260200190815260200160002060006101000a81548160ff0219169083151502179055506001600660003373ffffffffffffffffffffffffffffffffffffffff1673ffffffffffffffffffffffffffffffffffffffff168152602001908152602001600020836040518082805190602001908083835b602083106117d157805182526020820191506020810190506020830392506117ae565b6001836020036101000a038019825116818451168082178552505050505050905001915050908152602001604051809103902060006101000a81548160ff0219169083151502179055507f6536b62e423f10fcf50528ffd0e4fae488a3e0c2765bfffe840c00bf101af5a23385604051808373ffffffffffffffffffffffffffffffffffffffff1681526020018273ffffffffffffffffffffffffffffffffffffffff1681526020019250505060405180910390a150505050565b828054600181600116156101000203166002900490600052602060002090601f016020900481019282601f106118cd57805160ff19168380011785556118fb565b828001600101855582156118fb579182015b828111156118fa5782518255916020019190600101906118df565b5b509050611908919061194a565b5090565b6040518060800160405280600073ffffffffffffffffffffffffffffffffffffffff1681526020016060815260200160608152602001600081525090565b5b8082111561196357600081600090555060010161194b565b509056fe4a61207375626d6574657520756d20766f746f206e657374612063617465676f726961a26469706673582212209f0fa7db57b8c298ae3cb235a74c6049eabfb748730112b93c0d0c8269085c8d64736f6c63430007000033",
  "immutableReferences": {},
  "source": "// SPDX-License-Identifier: GPL-3.0\npragma solidity >= 0.7.0 < 0.9.0;\n\ncontract Votacao {\n  uint totalArtistas;\n  uint public totalVotos;\n\n  struct Artista {\n    address endereco;\n    string nomeCategoria;\n    string nomeArtista;\n    uint numeroDeVotos;\n  }\n\n  mapping(uint => Artista) public artistas;\n  mapping(address => Artista) votos;\n  mapping(address => mapping(address => bool)) jaVotou;\n  mapping(string => mapping(address => bool)) biUsado;\n  mapping(address => mapping(string => bool)) categoriaUsada;\n  mapping(address => mapping(string => bool)) artistaAdicionado;\n  mapping(address => bool) artistasEmCompticao;\n  mapping(string => mapping(string => bool)) artistaAdicionadoCatgeoria;\n  \n  constructor () {\n    totalArtistas = 0;\n  }\n\n  event aoSalvarArtista (string nomeArtista);\n  event aoVotar(address _enderecoVotante, address _artista);\n\n  function adicionarArtista (address _enderecoArtista, string memory _nomeArtista, string memory _nomeCategoria) public {\n    require(artistasEmCompticao[_enderecoArtista] == false, \"Artista ja existe\");\n    require(artistaAdicionado[_enderecoArtista][_nomeArtista] == false, \"Artista ja existe\");\n    require(artistaAdicionadoCatgeoria[_nomeArtista][_nomeCategoria] == false, \"Artista ja existe\");\n    artistas[totalArtistas] = Artista(_enderecoArtista, _nomeCategoria, _nomeArtista, 0);\n    totalArtistas++;\n    artistasEmCompticao[_enderecoArtista] = true;\n    artistaAdicionado[_enderecoArtista][_nomeArtista] = true;\n    artistaAdicionadoCatgeoria[_nomeArtista][_nomeCategoria] = true;\n    emit aoSalvarArtista(_nomeArtista);\n  }\n\n  function votar (address _enderecoArtista, string memory biVotante, string memory _categoria) public {\n    Artista memory artista;\n    require(jaVotou[msg.sender][_enderecoArtista] == false, \"Ja submeteu um voto nesta categoria\");\n    require(biUsado[biVotante][_enderecoArtista] == false, \"Ja submeteu um voto nesta categoria\");\n    require(categoriaUsada[msg.sender][_categoria] == false, \"Ja submeteu um voto nesta categoria\");\n    for (uint i = 0; i < totalArtistas; i++) {\n      if (artistas[i].endereco == _enderecoArtista) {\n        artistas[i].numeroDeVotos ++;\n        artista = artistas[i];\n      }\n    }\n    votos[msg.sender] = artista;\n    totalVotos++;\n    jaVotou[msg.sender][_enderecoArtista] = true;\n    biUsado[biVotante][_enderecoArtista] = true;\n    categoriaUsada[msg.sender][_categoria] = true;\n    emit aoVotar(msg.sender, _enderecoArtista);\n  }\n\n  function votosDeUmArtista (address _enderecoArtista) public view returns (uint) {\n    Artista memory artista;\n    for (uint i = 0; i < totalArtistas; i++) {\n      if (artistas[i].endereco == _enderecoArtista) {\n        artista = artistas[i];\n      }\n    }\n    return artista.numeroDeVotos;\n  }\n}",
  "sourcePath": "c:\\2023\\mimbu\\src\\contracts\\Votacao.sol",
  "compiler": {
    "name": "solc",
    "version": "0.7.0+commit.9e61f92b.Emscripten.clang"
  },
  "schemaVersion": "3.4.13",
  "updatedAt": "2023-04-07T17:04:20.465Z",
  "networkType": "ethereum",
  "devdoc": {
    "kind": "dev",
    "methods": {},
    "version": 1
  },
  "userdoc": {
    "kind": "user",
    "methods": {},
    "version": 1
  }
}